{"abi":[{"type":"constructor","inputs":[{"name":"_owner","type":"address","internalType":"address"}],"stateMutability":"nonpayable"},{"type":"function","name":"allPairs","inputs":[{"name":"","type":"uint256","internalType":"uint256"}],"outputs":[{"name":"","type":"address","internalType":"address"}],"stateMutability":"view"},{"type":"function","name":"allPairsLength","inputs":[],"outputs":[{"name":"","type":"uint256","internalType":"uint256"}],"stateMutability":"view"},{"type":"function","name":"cancelOwnershipHandover","inputs":[],"outputs":[],"stateMutability":"payable"},{"type":"function","name":"completeOwnershipHandover","inputs":[{"name":"pendingOwner","type":"address","internalType":"address"}],"outputs":[],"stateMutability":"payable"},{"type":"function","name":"createPair","inputs":[{"name":"tokenA","type":"address","internalType":"address"},{"name":"tokenB","type":"address","internalType":"address"}],"outputs":[{"name":"pair","type":"address","internalType":"address"}],"stateMutability":"nonpayable"},{"type":"function","name":"getPair","inputs":[{"name":"fromToken","type":"address","internalType":"address"},{"name":"toToken","type":"address","internalType":"address"}],"outputs":[{"name":"pair","type":"address","internalType":"address"}],"stateMutability":"view"},{"type":"function","name":"owner","inputs":[],"outputs":[{"name":"result","type":"address","internalType":"address"}],"stateMutability":"view"},{"type":"function","name":"ownershipHandoverExpiresAt","inputs":[{"name":"pendingOwner","type":"address","internalType":"address"}],"outputs":[{"name":"result","type":"uint256","internalType":"uint256"}],"stateMutability":"view"},{"type":"function","name":"renounceOwnership","inputs":[],"outputs":[],"stateMutability":"payable"},{"type":"function","name":"requestOwnershipHandover","inputs":[],"outputs":[],"stateMutability":"payable"},{"type":"function","name":"transferOwnership","inputs":[{"name":"newOwner","type":"address","internalType":"address"}],"outputs":[],"stateMutability":"payable"},{"type":"function","name":"withdraw","inputs":[{"name":"token","type":"address","internalType":"address"},{"name":"to","type":"address","internalType":"address"},{"name":"amount","type":"uint256","internalType":"uint256"}],"outputs":[],"stateMutability":"nonpayable"},{"type":"function","name":"withdraw","inputs":[{"name":"token","type":"address","internalType":"address"},{"name":"to","type":"address","internalType":"address"}],"outputs":[],"stateMutability":"nonpayable"},{"type":"event","name":"OwnershipHandoverCanceled","inputs":[{"name":"pendingOwner","type":"address","indexed":true,"internalType":"address"}],"anonymous":false},{"type":"event","name":"OwnershipHandoverRequested","inputs":[{"name":"pendingOwner","type":"address","indexed":true,"internalType":"address"}],"anonymous":false},{"type":"event","name":"OwnershipTransferred","inputs":[{"name":"oldOwner","type":"address","indexed":true,"internalType":"address"},{"name":"newOwner","type":"address","indexed":true,"internalType":"address"}],"anonymous":false},{"type":"event","name":"PairCreated","inputs":[{"name":"token0","type":"address","indexed":true,"internalType":"address"},{"name":"token1","type":"address","indexed":true,"internalType":"address"},{"name":"pair","type":"address","indexed":false,"internalType":"address"},{"name":"allPairsLength","type":"uint256","indexed":false,"internalType":"uint256"}],"anonymous":false},{"type":"error","name":"AlreadyInitialized","inputs":[]},{"type":"error","name":"ErrIdenticalAddress","inputs":[]},{"type":"error","name":"ErrNativoMustBeDeployed","inputs":[]},{"type":"error","name":"ErrPairExists","inputs":[]},{"type":"error","name":"ErrZeroAddress","inputs":[]},{"type":"error","name":"NewOwnerIsZeroAddress","inputs":[]},{"type":"error","name":"NoHandoverRequest","inputs":[]},{"type":"error","name":"Unauthorized","inputs":[]}],"bytecode":{"object":"0x6080604052348015600f57600080fd5b50604051612a24380380612a24833981016040819052602c916074565b6033816038565b5060a2565b6001600160a01b0316638b78c6d8198190558060007f8be0079c531659141344cd1fd0a4f28419497f9722a3daafe3b4186f6b6457e08180a350565b600060208284031215608557600080fd5b81516001600160a01b0381168114609b57600080fd5b9392505050565b612973806100b16000396000f3fe6080604052600436106100c25760003560e01c8063c9c653961161007f578063f04e283e11610059578063f04e283e146101d4578063f2fde38b146101e7578063f940e385146101fa578063fee81cf41461021a57600080fd5b8063c9c6539614610156578063d9caed1214610176578063e6a439051461019657600080fd5b80631e3dd18b146100c7578063256929621461010457806354d1f13d1461010e578063574f2ba314610116578063715018a6146101355780638da5cb5b1461013d575b600080fd5b3480156100d357600080fd5b506100e76100e23660046107bd565b61024d565b6040516001600160a01b0390911681526020015b60405180910390f35b61010c610277565b005b61010c6102c7565b34801561012257600080fd5b506001545b6040519081526020016100fb565b61010c610303565b34801561014957600080fd5b50638b78c6d819546100e7565b34801561016257600080fd5b506100e76101713660046107f2565b610317565b34801561018257600080fd5b5061010c610191366004610825565b61049f565b3480156101a257600080fd5b506100e76101b13660046107f2565b60006020818152928152604080822090935290815220546001600160a01b031681565b61010c6101e2366004610861565b6104c0565b61010c6101f5366004610861565b610500565b34801561020657600080fd5b5061010c6102153660046107f2565b610527565b34801561022657600080fd5b50610127610235366004610861565b63389a75e1600c908152600091909152602090205490565b6001818154811061025d57600080fd5b6000918252602090912001546001600160a01b0316905081565b60006202a30067ffffffffffffffff164201905063389a75e1600c5233600052806020600c2055337fdbf36a107da19e49527a7176a1babf963b4b0ff8cde35ee35d6cd8f1f9ac7e1d600080a250565b63389a75e1600c523360005260006020600c2055337ffa7b8eab7da67f412cc9575ed43464468f9bfbae89d1675917346ca6d8fe3c92600080a2565b61030b610542565b610315600061055d565b565b6000806000610326858561059b565b6001600160a01b03808316600090815260208181526040808320848616845290915290205492945090925016156103705760405163c4f5b39960e01b815260040160405180910390fd5b600061037c8383610626565b6040516bffffffffffffffffffffffff19606086811b8216602084015285901b1660348201529091506103ca906048016040516020818303038152906040528051906020012082600061067e565b6001600160a01b0384811660008181526020818152604080832088861680855290835281842080546001600160a01b031990811697891697881790915584845282852086865284528285208054821688179055600180548082018255958190527fb10e2d527612073b26eecdfd717e6a320cf44b4afac2b0732d9fcbe2b7fa0cf690950180549091168717905592548151958652918501919091529397509290917f0d3648bd0f6ba80134a33ba9275ac585d9d315f0ad8355cddefde31afa28d0e9910160405180910390a350505092915050565b6104a7610542565b6104bb6001600160a01b03841683836106ff565b505050565b6104c8610542565b63389a75e1600c52806000526020600c2080544211156104f057636f5e88186000526004601cfd5b600090556104fd8161055d565b50565b610508610542565b8060601b61051e57637448fbae6000526004601cfd5b6104fd8161055d565b61052f610542565b6104bb6001600160a01b03831682610745565b638b78c6d819543314610315576382b429006000526004601cfd5b638b78c6d81980546001600160a01b039092169182907f8be0079c531659141344cd1fd0a4f28419497f9722a3daafe3b4186f6b6457e0600080a355565b600080826001600160a01b0316846001600160a01b0316036105d05760405163ae11b8cb60e01b815260040160405180910390fd5b826001600160a01b0316846001600160a01b0316106105f05782846105f3565b83835b90925090506001600160a01b03821661061f57604051630ecc6fdf60e41b815260040160405180910390fd5b9250929050565b604080513060208201526001600160a01b0384811682840152831660608083019190915282518083038201815260808301909352916106679160a0016108ac565b604051602081830303815290604052905092915050565b60006f67363d3d37363d34f03d5260086018f3600052836010806000f5806106ae5763301164256000526004601cfd5b8060145261d69460005260016034536017601e20915060008085516020870186855af16106e3576319b991a86000526004601cfd5b50803b6106f8576319b991a86000526004601cfd5b9392505050565b816014528060345263a9059cbb60601b60005260206000604460106000875af13d15600160005114171661073b576390b8ec186000526004601cfd5b6000603452505050565b60006370a0823160005230602052602060346024601c865afa601f3d1116610775576390b8ec186000526004601cfd5b81601452603451905063a9059cbb60601b60005260206000604460106000875af13d1560016000511417166107b2576390b8ec186000526004601cfd5b600060345292915050565b6000602082840312156107cf57600080fd5b5035919050565b80356001600160a01b03811681146107ed57600080fd5b919050565b6000806040838503121561080557600080fd5b61080e836107d6565b915061081c602084016107d6565b90509250929050565b60008060006060848603121561083a57600080fd5b610843846107d6565b9250610851602085016107d6565b9150604084013590509250925092565b60006020828403121561087357600080fd5b6106f8826107d6565b6000815160005b8181101561089d5760208185018101518683015201610883565b50600093019283525090919050565b7f38600b3d39600b38033df33461200357343560e01c8063022c0d9f146101cd5781527f80636a627842106100ea57806323b872dd10610095578063095ea7b31061006560208201527f578063095ea7b31461078457806301ffc9a7146106b257806306fdde0314610760408201527f1757630902f1ac14610734576101c0565b806323b872dd146108ab578063129660608201527fee62146107c857806318160ddd1461088d57630dfe1681146106de576101c05660808201527f5b80634000aea0106100c5578063313ce5671461096c5780633177029f14610960a08201527f7557634000aea0146107c8576101c0565b80636a62784214610a46578063590960c08201527fc0d514610a0a57635a3d549314610a28576101c0565b8063bc25cf771061016060e08201527f57806389afcb441061013057806389afcb44146112325780636a62784214610a6101008201527f4657806370a082311461120957637464fc3d14611214576101c0565b8063bc256101208201527fcf77146119ea57806395d89b4114611961578063a9059cbb1461197a5763ba9a6101408201527f7a5614611ff9576101c0565b8063d8fbe994106101a6578063c1d34b8914611b6101608201527fd0578063d21220a7146106f1578063cae9ca5114610975578063d8fbe99414616101808201527f1bd05763c45a015514610704576101c0565b8063dd62ed3e14611ceb5763fff66101a08201527fcae914611d02576101c0565b63d5cf065534526004601cfd5b602435807401006101c08201526d02600274010000000000000000006101e0820152750554106102125763ab143c0634526004601cfd5b60026102008201526a055554806dffffffffffff61740160f01b01610220820152663a67fef29edfa3608a1b196102408201527fffffff60443516876060868660405286108860701c6dffffffffffffffffffff6102608201527fffffffff1698848c891761028f576342301c2334526004601cfd5b80602060406102808201527f380360003960005114906020602038036000396000511417156102be5763290f6102a08201527fa18834526004601cfd5b60e01c9a8911166102d65763bb55fd2734526004601c6102c08201527ffd5b52828282602060403803600039600051821561032d5782828291906fa9056102e08201527f9cbb00000000000000000000000034526014526034523460446010346020945a61030082018190527ff160013451141761032c576390b8ec1834526004601cfd5b5b505050816020606103208301527f20380360003960005182156103845782828291906fa9059cbb000000000000006103408301527a34526014526034523460446010346020945af160013451141761036103608301527f83576390b8ec1834526004601cfd5b5b505050608435156103ca5782828291606103808301527f1c9150336084360360846080376310d1e85c34526020526080608052503634346103a08301527f34945af16103c957637fd1918d34526004601cfd5b5b505050306020604038036103c08301527f6000396000519060146f70a082310000000000000000000000003452523460246103e083018190527f60106020935afa61040c57633dd8248734526004601cfd5b34513060206020386104008401527f036000396000519060146f70a08231000000000000000000000000345252346061042084018190527f2460106020935afa61044d57633dd8248734526004601cfd5b345191818490916104408501527f90038082039110348218021894828590919003808203911034821802189584846104608501527f8484929190936dffffffffffffffffffffffffffff85116dffffffffffffffff610480850152797aeeea9efb51a89ccad872edcbad9ffb9fe302a4ea9efb3fa89c196104a08501527f35278d1234526004601cfd5b420363ffffffff168282821717156105d55774016104c08501526c0454818284866e0100000000006104e08501526001609f60aa1b036105008501819052623a7ee160b21b1961052086018190526203540263e9fd8bff60b01b03196105408701526a035584846e01000000000061740160f01b016105608701526105808601919091526105a085015261045664e9fdfe8bff60a81b03196105c0850152715b50505081819060701b4260e01b1717740160701b6105e08501527a025534526020527f1c411e9a96e071241c2f21f7726b17ae89e3ca6106008501527fb4c78be50e062b03a9fffbbad1604034a18586861761063a5763098fb56134526106208501527f6004601cfd5b853452602052604435337fd78ad95fa46c994b6551d0da85fc276106408501527f5fe613ce37657fb8d5e3d130840159d822608034a394600302906103e80203926106608501527f6003029102620f424002926103e802030211610697576335b01a0f3452600460610680850152650555005b6004661cfd5b6001740160c81b016106a08501527f3560e01c6336372b0781146301ffc9a782141781637d4c6ff5149163b0202a116106c08501527f1417173452602034f35b6020604038036000396000513452602034f35b6020606106e08501527f2038036000396000513452602034f35b602060603803600039600051345260206107008501527f34f35b6f0f48756666537761702050616972563260203452602f52606034f35b6107208501526a02548060701c6dffffffff61740160f01b0161074085015275e97e9f1fe36e920000000000000000000000000000e9196107608501527f6060838234528360205260405234f35b602060013460043560243534818333606107808501527f20523452604034205552337f8c5be1e5ebec7d5bd14f71427d1e84f3dd0314c06107a08501527ff7b2291e5b200ac8c7c3b925602034a35234f35b6020600173ffffffffffffff6107c0850152729ffbcae99fdbca7ecc7dccab6f7efc6f7eeeea196107e08501527f6108055763f4d678b834526004601cfd5b3384604452557fddf252ad1be2c89b6108008501527f69c2b068fc378daa952ba7f163c4a11628f55a4df523b3ef60206044a38154016108208501527f8155346020346060360134346388a7ca5c60e01b965a608060643360048c60446108408501527f360360446064373452523360245252f1610875576385b1639434526004601cfd6108608501527f5b5114610888576385b1639434526004601cfd5b345234f35b602074010000006108808501526e54345234f35b600160443573ffffff6108a08501526427f6f2ba6360521b196108c0850152759ffbcae97dcc7d9fdfadcbad9fbfcbdf7fab6f7ecbe6196108e08501527f1461091657828290810390811115610913576313be252b34526004601cfd5b816109008501527f555b5050509091808254908103908111156109365763f4d678b834526004601c6109208501527ffd5b813452825582540182557fddf252ad1be2c89b69c2b068fc378daa952ba76109408501527ff163c4a11628f55a4df523b3ef602034a33452602034f35b60203460123452f36109608501527f5b6020346001600435337f8c5be1e5ebec7d5bd14f71427d1e84f3dd0314c0f76109808501527fb2291e5b200ac8c7c3b9256020602460243585336020523452604034208682606109a08501527f245234602034604036013434637b04a2d060e01b9660606044896044360360446109c08501527f604437345233600452525af16109f1576381cbe4db34526004601cfd5b5114616109e08501527f0a04576381cbe4db34526004601cfd5b55a33452f35b60207401000000000000610a00850152720354345234f35b602074010000000000000000610a208501526a0454345234f35b6002740160501b610a4085015276055410610a715763ab143c0634526004601cfd5b600274610a608501526b055574010000000000000000600160f81b01610a808501527402548060e01c306020604038036000396000519060610aa08501527f146f70a0823100000000000000000000000034525234602460106020935afa61610ac08501527f0ae457633dd8248734526004601cfd5b34513060206020380360003960005190610ae08501527f60146f70a0823100000000000000000000000034525234602460106020935afa610b008501527f610b2557633dd8248734526004601cfd5b3451808460701c6dffffffffffffff610b2085015278e96b920000000000000000000000000000e96c7a7a7b796d6e19610b408501527f90936dffffffffffffffffffffffffffff85116dffffffffffffffffffffffff610b608501527fffff851115610b8a576335278d1234526004601cfd5b15610b9c576335278d12610b808501527f34526004601cfd5b420363ffffffff16828282171715610cb157740100000000610ba0850152700454818284866e01000000000000000000610bc08501526001609f60ca1b03610be08501819052623a7ee160d21b19610c0086018190527fffff160274010000000000000000000000000000000000000003540174010000610c208701526e035584846e01000000000000000000610c40870152610c60860191909152610c808501527fffff16020174010000000000000000000000000000000000000004555b505050610ca08501526d81819060701b4260e01b1717740160901b610cc08501527e025534526020527f1c411e9a96e071241c2f21f7726b17ae89e3cab4c78be5610ce08501527f0e062b03a9fffbbad1604034a184848490810390811115610d1c57632a2ab278610d008501527f34526004601cfd5b9290810390811115610d3557632a2ab27834526004601cfd610d208501526601548015610f42655b928585740160d01b01610d408501527f578282028070ffffffffffffffffffffffffffffffffff1060071b81811c68ff610d6085015277ef9ff9e4e87e7ee39b0000000000ef9ffae4e87e7ee39d0019610d808501527fffff1060041b1760b582821c62010000019160011c1b0260121c808204016001610da08501527f1c8082040160011c8082040160011c8082040160011c8082040160011c808204610dc08501527f0160011c8082040160011c80910481119003818070ffffffffffffffffffffff610de085015279ef9ff8e47e7ee397000000000000000000ef9ff9e4e87e7ee39b19610e008501527aef9ffae4e87e7ee39d000000ef9ffbe4e89f4a7d7de39dfefffffe19610e208501527f9160011c1b0260121c8082040160011c8082040160011c8082040160011c8082610e408501527f040160011c8082040160011c8082040160011c8082040160011c809104811190610e60850152740381811015610f3f5781818160050281019103740160581b610e80850152765480158282029284928404141702610ebc5763ad251c27610ea08501527f34526004601cfd5b046020606038036000396000519034818383740100000000610ec08501526f54810190811015610efc576335278d12610ee08501526155546934526004601cfd5b740160b01b01610f008501527f01835552347fddf252ad1be2c89b69c2b068fc378daa952ba7f163c4a11628f5610f208501527f5a4df523b3ef602034a35b50505b505050808202918183049115348218021814610f4085015272610f65576335278d1234526004601cfd5b740160681b610f60850152790183833452602052337f4c209b5fc8ad50758f13e2e1088ba56a610f808501527f560dff690a1c6fef26394f4c03821c4f604034a2557401000000000000000000610fa085015274548061111057918082029181830491153482180218610fc08501527f14610fe6576335278d1234526004601cfd5b8070ffffffffffffffffffffffff610fe08501527aef9ff8e47e7ee397000000000000000000ef9ff9e4e87e7ee39b00196110008501527fffffffff1060051b1781811c62ffffff1060041b1760b582821c6201000001916110208501527f60011c1b0260121c8082040160011c8082040160011c8082040160011c8082046110408501527f0160011c8082040160011c8082040160011c8082040160011c80910481119003611060850152716103e8810393506103e8349034818383740160701b61108085015279548101908110156110b2576335278d1234526004601cfd5b74016110a08501526b555401835552347fddf252ad6110c08501527f1be2c89b69c2b068fc378daa952ba7f163c4a11628f55a4df523b3ef602034a36110e085018190527f6103e8106111095763bb55fd2734526004601cfd5b5050611170565b919392906111008601527f8290801582820292849284041417026111345763ad251c2734526004601cfd5b6111208601527f0492801582820292849284041417026111545763ad251c2734526004601cfd5b6111408601527f0481811090821802188061116f5763bb55fd2734526004601cfd5b5b80345260611160860152625481016804359034818383740160b81b016111808601527f908110156111a9576335278d1234526004601cfd5b74010000000000000000006111a086015274555401835552347fddf252ad1be2c89b69c2b068fc6111c08601527f378daa952ba7f163c4a11628f55a4df523b3ef602034a36001740100000000006111e0860152710555602034f35b602060043554345234f35b611200860152680154345234f35b7401636020740160e01b016112208601526c02600274010000000000000000611240860152740554106112735763ab143c0634526004601cfd5b6061126086015269055554305430602060406202740160e81b016112808601527f38036000396000519060146f70a08231000000000000000000000000345252346112a08601527f602460106020935afa6112ce57633dd8248734526004601cfd5b3451903060206112c08601527f602038036000396000519060146f70a0823100000000000000000000000034526112e08601527f5234602460106020935afa61131057633dd8248734526004601cfd5b345183606113008601527f701c6dffffffffffffffffffffffffffff16846dffffffffffffffffffffffff6113208601527fffff166004359560e01c928282740100000000000000000000000000000000006113408601527d0154801561154b578282028070ffffffffffffffffffffffffffffffffff6113608601527f1060071b81811c68ffffffffffffffffff1060061b1781811c64ffffffffff106113808601527f60051b1781811c62ffffff1060041b1760b582821c62010000019160011c1b026113a08601527f60121c8082040160011c8082040160011c8082040160011c8082040160011c806113c08601527f82040160011c8082040160011c8082040160011c80910481119003818070ffff6113e086015270ef9ff8e47e7ee397000000000000000000196114008601527f1060061b1781811c64ffffffffff1060051b1781811c62ffffff1060041b17606114208601527fb582821c62010000019160011c1b0260121c8082040160011c8082040160011c6114408601527f8082040160011c8082040160011c8082040160011c8082040160011c808204016114608601527f60011c80910481119003818110156115485781818160050281019103740100006114808601526d54801582820292849284041417026114a08601527f6114c55763ad251c2734526004601cfd5b0460206060380360003960005190346114c0860152665481019081101564818383740160d81b016114e086015272611505576335278d1234526004601cfd5b740160681b61150086015278555401835552347fddf252ad1be2c89b69c2b068fc378daa956115208601527f2ba7f163c4a11628f55a4df523b3ef602034a35b50505b5050507401000000006115408601526f548091868015828202928492840414176115608601527f026115865763ad251c2734526004601cfd5b04958580158282029284928404146115808601527f17026115a75763ad251c2734526004601cfd5b04938585176115bd57637493836115a086015272ad34526004601cfd5b3034918034528181740160681b6115c08601526055635403740160a81b016115e08601527f549081039081111561160d5763f4d678b834526004601cfd5b81557fddf252ad6116008601526116208501527f8486858860206040380360003960005191906fa9059cbb0000000000000000006116408501527c34526014526034523460446010346020945af1600134511417611681576116608501527f6390b8ec1834526004601cfd5b60206020380360003960005191906fa9059cbb6116808501527334526014526034523460446010346020945af1606116a08501527f01345114176116ca576390b8ec1834526004601cfd5b913060206040380360006116c08501527f396000519060146f70a0823100000000000000000000000034525234602460106116e08501527f6020935afa61170a57633dd8248734526004601cfd5b345191306020602038036117008501526117208401919091527f60106020935afa61174c57633dd8248734526004601cfd5b34519384849291906117408401527f936dffffffffffffffffffffffffffff85116dffffffffffffffffffffffffff6117608401527fff851115611789576335278d1234526004601cfd5b1561179b576335278d12346117808401527f526004601cfd5b420363ffffffff168282821717156118b057740100000000006117a0840152670454818284866e0160501b6117c08401526001609f60d21b036117e08401819052623a7ee160da1b1961180085018190527fff1602740100000000000000000000000000000000000000035401740100000061182086015265035584846e0160501b6118408601526118608501919091526118808401527fff16020174010000000000000000000000000000000000000004555b505050816118a08401526c819060701b4260e01b1717740160981b6118c08401527f025534526020527f1c411e9a96e071241c2f21f7726b17ae89e3cab4c78be50e6118e08401526e062b03a9fffbbad1604034a102740160881b6119008401526405553452606501556001740160c01b016119208401527f2052337f3e43e1de00e8a6bc1dfa3e950e6ade24c52e4a25de4dee7fb5affe916119408401527f8ad1e744604034a3604034f35b6b0b48554646535741502d563260203452602b611960840152619ffc691498180d3cd6d8004d1d60b21b036119808401527f3516337fddf252ad1be2c89b69c2b068fc378daa952ba7f163c4a11628f55a4d6119a08401527ff523b3ef602034602435803354908103908111156119d95763f4d678b83452606119c08401527f04601cfd5b33558086540186553452a352602034f35b600435806002740100006119e08401526e055410611a195763ab143c06345260611a0084015263055574016804601cfd5b6002740160b81b01611a208401526c0254806dffffffffffffffffff611a408401527ae96f9f8fe3920000000000000000000000000000e9cf9fdf9fdfc719611a60840152611a808301527f2460106020935afa611aad57633dd8248734526004601cfd5b34519130602060611aa08301527f4038036000396000519060146f70a08231000000000000000000000000345252611ac08301527f34602460106020935afa611aef57633dd8248734526004601cfd5b3451908103611ae08301527f90811115611b09576335278d1234526004601cfd5b9190810390811115611b22611b008301527f576335278d1234526004601cfd5b9260206040380360003960005191906fa905611b20830152611b408201527ff1600134511417611b6c576390b8ec1834526004601cfd5b6020602038036000611b608201527f3960005191906fa9059cbb000000000000000000000000345260145260345234611b808201527f60446010346020945af1600134511417611bb5576390b8ec1834526004601cfd611ba0820152670555005b602073ff645b6001740160d81b01611bc08201526c9fdbcae98c000000000000000019611be0820152739ffbcae99fbbca7fcc7c9fdfadcbad9fbfcbdf7f19611c008201527f549081341914611c3b57828290810390811115611c38576313be252b34526004611c208201527f601cfd5b81555b5050508282835450909180825490810390811115611c605763611c408201527ff4d678b834526004601cfd5b81604452825582540182557fddf252ad1be2c89b611c608201527f69c2b068fc378daa952ba7f163c4a11628f55a4df523b3ef60206044a3906080611c808201527f60646388a7ca5c60e01b93602485346064360360646064375233600452525260611ca08201527f203436606001343434955af1611cd1576385b1639434526004601cfd5b511461611cc08201527f1ce4576385b1639434526004601cfd5b6001345234f35b602060243560043560611ce082015271205234526040342054345234f35b6002740160701b611d008201527a055410611d2d5763ab143c0634526004601cfd5b60027401000000611d20820152630555740160601b611d40820152780254806dffffffffffffffffffffffffffff16908060701c6d611d6082015271e96f9f1fe36ecf9fdf9fbfc7fc9fffc69fff19611d808201527f519060146f70a082310000000000000000000000003452523460246010602093611da08201527f5afa611dc757633dd8248734526004601cfd5b345180611ddb5763bb55fd2734611dc08201527f526004601cfd5b306020602038036000396000519060146f70a0823100000000611de08201527734525234602460106020935afa611e1a57633dd824873452611e008201527f6004601cfd5b34519081611e2f5763bb55fd2734526004601cfd5b929190936d611e20820152717aee9200000000000000000000000000007a19611e408201527f1115611e67576335278d1234526004601cfd5b15611e79576335278d12345260611e608201527f04601cfd5b420363ffffffff16828282171715611f8e57740100000000000000611e80820152670454818284866e0160601b611ea08201526001609f60e21b03611ec0820181905260ea6205811f60ea1b03611ee0830181905269035401740100000000006202740160e81b01611f0084015265035584846e0160601b611f20840152611f40830191909152611f608201526804555b505050818190630201740160e01b01611f808201526102556a60701b4260e01b1717740160a81b01611fa08201527f34526020527f1c411e9a96e071241c2f21f7726b17ae89e3cab4c78be50e062b611fc08201526d03a9fffbbad1604034a16001740160901b611fe08201527e0555005b6103e83452602034f35b636fb1b0e96000526004601cfd0000000061200082015260006106f861201c83018461087c56fea2646970667358221220d40fe8770a06640e8d01fd4f120e9875dfff59b7e3a47c9e7c3a16fffb719e6b64736f6c63430008190033","linkReferences":{}},"methodIdentifiers":{"allPairs(uint256)":"1e3dd18b","allPairsLength()":"574f2ba3","cancelOwnershipHandover()":"54d1f13d","completeOwnershipHandover(address)":"f04e283e","createPair(address,address)":"c9c65396","getPair(address,address)":"e6a43905","owner()":"8da5cb5b","ownershipHandoverExpiresAt(address)":"fee81cf4","renounceOwnership()":"715018a6","requestOwnershipHandover()":"25692962","transferOwnership(address)":"f2fde38b","withdraw(address,address)":"f940e385","withdraw(address,address,uint256)":"d9caed12"},"id":3}